{
    "contractName": "Functions",
    "abi": [
        {
            "inputs": [
                {
                    "internalType": "uint256",
                    "name": "a",
                    "type": "uint256"
                },
                {
                    "internalType": "uint256",
                    "name": "b",
                    "type": "uint256"
                }
            ],
            "name": "add",
            "outputs": [
                {
                    "internalType": "uint256",
                    "name": "",
                    "type": "uint256"
                }
            ],
            "stateMutability": "view",
            "type": "function"
        },
        {
            "inputs": [
                {
                    "internalType": "uint256",
                    "name": "a",
                    "type": "uint256"
                },
                {
                    "internalType": "uint256",
                    "name": "b",
                    "type": "uint256"
                }
            ],
            "name": "add2",
            "outputs": [
                {
                    "internalType": "uint256",
                    "name": "",
                    "type": "uint256"
                }
            ],
            "stateMutability": "pure",
            "type": "function"
        },
        {
            "inputs": [],
            "name": "eA",
            "outputs": [
                {
                    "internalType": "string",
                    "name": "",
                    "type": "string"
                }
            ],
            "stateMutability": "pure",
            "type": "function"
        },
        {
            "inputs": [],
            "name": "nothing",
            "outputs": [
                {
                    "internalType": "uint256",
                    "name": "",
                    "type": "uint256"
                },
                {
                    "internalType": "bool",
                    "name": "",
                    "type": "bool"
                },
                {
                    "internalType": "bool",
                    "name": "",
                    "type": "bool"
                }
            ],
            "stateMutability": "pure",
            "type": "function"
        },
        {
            "inputs": [
                {
                    "internalType": "uint256",
                    "name": "a",
                    "type": "uint256"
                },
                {
                    "internalType": "uint256",
                    "name": "b",
                    "type": "uint256"
                }
            ],
            "name": "pA",
            "outputs": [
                {
                    "internalType": "uint256",
                    "name": "",
                    "type": "uint256"
                }
            ],
            "stateMutability": "pure",
            "type": "function"
        },
        {
            "inputs": [
                {
                    "internalType": "uint256",
                    "name": "c",
                    "type": "uint256"
                },
                {
                    "internalType": "uint256",
                    "name": "d",
                    "type": "uint256"
                }
            ],
            "name": "pB",
            "outputs": [
                {
                    "internalType": "uint256",
                    "name": "",
                    "type": "uint256"
                }
            ],
            "stateMutability": "pure",
            "type": "function"
        },
        {
            "inputs": [
                {
                    "internalType": "uint256",
                    "name": "newNumber",
                    "type": "uint256"
                }
            ],
            "name": "setNumber",
            "outputs": [],
            "stateMutability": "nonpayable",
            "type": "function"
        },
        {
            "inputs": [
                {
                    "internalType": "uint256",
                    "name": "newX",
                    "type": "uint256"
                }
            ],
            "name": "setX",
            "outputs": [],
            "stateMutability": "nonpayable",
            "type": "function"
        },
        {
            "inputs": [],
            "name": "showNumber",
            "outputs": [
                {
                    "internalType": "uint256",
                    "name": "",
                    "type": "uint256"
                }
            ],
            "stateMutability": "view",
            "type": "function"
        },
        {
            "inputs": [],
            "name": "x",
            "outputs": [
                {
                    "internalType": "uint256",
                    "name": "",
                    "type": "uint256"
                }
            ],
            "stateMutability": "view",
            "type": "function"
        }
    ],
    "bytecode": "60806040526007600055600360015534801561001a57600080fd5b506102878061002a6000396000f3fe608060405234801561001057600080fd5b506004361061009e5760003560e01c80633fb5c1cb116100665780633fb5c1cb146101035780634018d9aa14610118578063448f30a31461012b57806376dad2231461014a578063771602f71461015257600080fd5b8063028b7791146100a35780630c55699c146100c657806329792495146100dd57806329fcda33146100dd57806334735ed6146100f0575b600080fd5b604080516020810182526000815290516100bd919061019b565b60405180910390f35b6100cf60015481565b6040519081526020016100bd565b6100cf6100eb3660046101f0565b610165565b6100cf6100fe3660046101f0565b610178565b610116610111366004610212565b600055565b005b610116610126366004610212565b600155565b60408051600180825260208201526000918101919091526060016100bd565b6000546100cf565b6100cf6101603660046101f0565b610184565b6000610171828461022b565b9392505050565b60006101718383610165565b600042610191838561022b565b610171919061022b565b600060208083528351808285015260005b818110156101c8578581018301518582016040015282016101ac565b818111156101da576000604083870101525b50601f01601f1916929092016040019392505050565b6000806040838503121561020357600080fd5b50508035926020909101359150565b60006020828403121561022457600080fd5b5035919050565b6000821982111561024c57634e487b7160e01b600052601160045260246000fd5b50019056fea264697066735822122004c68cd2e448be023230aede2b9c4943e619141b4beb24c5a34461f4fc5d3e5a64736f6c634300080d0033",
    "sourcePath": "c:/Users/devkendo/source/repos/solidity-bootcamp21/02_Functions/function.sol",
    "compiler": {
        "name": "solc",
        "version": "0.8.13+commit.abaa5c0e"
    },
    "functionHashes": {
        "add(uint256,uint256)": "771602f7",
        "add2(uint256,uint256)": "29fcda33",
        "eA()": "028b7791",
        "nothing()": "448f30a3",
        "pA(uint256,uint256)": "29792495",
        "pB(uint256,uint256)": "34735ed6",
        "setNumber(uint256)": "3fb5c1cb",
        "setX(uint256)": "4018d9aa",
        "showNumber()": "76dad223",
        "x()": "0c55699c"
    },
    "gasEstimates": {
        "creation": {
            "codeDepositCost": "129400",
            "executionCost": "44389",
            "totalCost": "173789"
        },
        "external": {
            "add(uint256,uint256)": "infinite",
            "add2(uint256,uint256)": "453",
            "eA()": "359",
            "nothing()": "269",
            "pA(uint256,uint256)": "431",
            "pB(uint256,uint256)": "infinite",
            "setNumber(uint256)": "22312",
            "setX(uint256)": "22334",
            "showNumber()": "2358",
            "x()": "2318"
        },
        "internal": {
            "iA()": "infinite",
            "pC()": "infinite"
        }
    }
}